{
  "contractName": "Ticket",
  "abi": [
    {
      "inputs": [],
      "stateMutability": "nonpayable",
      "type": "constructor"
    },
    {
      "anonymous": false,
      "inputs": [
        {
          "indexed": true,
          "internalType": "address",
          "name": "owner",
          "type": "address"
        },
        {
          "indexed": true,
          "internalType": "address",
          "name": "approved",
          "type": "address"
        },
        {
          "indexed": true,
          "internalType": "uint256",
          "name": "tokenId",
          "type": "uint256"
        }
      ],
      "name": "Approval",
      "type": "event"
    },
    {
      "anonymous": false,
      "inputs": [
        {
          "indexed": true,
          "internalType": "address",
          "name": "owner",
          "type": "address"
        },
        {
          "indexed": true,
          "internalType": "address",
          "name": "operator",
          "type": "address"
        },
        {
          "indexed": false,
          "internalType": "bool",
          "name": "approved",
          "type": "bool"
        }
      ],
      "name": "ApprovalForAll",
      "type": "event"
    },
    {
      "anonymous": false,
      "inputs": [
        {
          "indexed": true,
          "internalType": "address",
          "name": "previousOwner",
          "type": "address"
        },
        {
          "indexed": true,
          "internalType": "address",
          "name": "newOwner",
          "type": "address"
        }
      ],
      "name": "OwnershipTransferred",
      "type": "event"
    },
    {
      "anonymous": false,
      "inputs": [
        {
          "indexed": true,
          "internalType": "address",
          "name": "from",
          "type": "address"
        },
        {
          "indexed": true,
          "internalType": "address",
          "name": "to",
          "type": "address"
        },
        {
          "indexed": true,
          "internalType": "uint256",
          "name": "tokenId",
          "type": "uint256"
        }
      ],
      "name": "Transfer",
      "type": "event"
    },
    {
      "inputs": [
        {
          "internalType": "address",
          "name": "to",
          "type": "address"
        },
        {
          "internalType": "uint256",
          "name": "tokenId",
          "type": "uint256"
        }
      ],
      "name": "approve",
      "outputs": [],
      "stateMutability": "nonpayable",
      "type": "function"
    },
    {
      "inputs": [
        {
          "internalType": "address",
          "name": "owner",
          "type": "address"
        }
      ],
      "name": "balanceOf",
      "outputs": [
        {
          "internalType": "uint256",
          "name": "",
          "type": "uint256"
        }
      ],
      "stateMutability": "view",
      "type": "function"
    },
    {
      "inputs": [
        {
          "internalType": "uint256",
          "name": "tokenId",
          "type": "uint256"
        }
      ],
      "name": "getApproved",
      "outputs": [
        {
          "internalType": "address",
          "name": "",
          "type": "address"
        }
      ],
      "stateMutability": "view",
      "type": "function"
    },
    {
      "inputs": [
        {
          "internalType": "address",
          "name": "owner",
          "type": "address"
        },
        {
          "internalType": "address",
          "name": "operator",
          "type": "address"
        }
      ],
      "name": "isApprovedForAll",
      "outputs": [
        {
          "internalType": "bool",
          "name": "",
          "type": "bool"
        }
      ],
      "stateMutability": "view",
      "type": "function"
    },
    {
      "inputs": [],
      "name": "name",
      "outputs": [
        {
          "internalType": "string",
          "name": "",
          "type": "string"
        }
      ],
      "stateMutability": "view",
      "type": "function"
    },
    {
      "inputs": [],
      "name": "owner",
      "outputs": [
        {
          "internalType": "address",
          "name": "",
          "type": "address"
        }
      ],
      "stateMutability": "view",
      "type": "function"
    },
    {
      "inputs": [
        {
          "internalType": "uint256",
          "name": "tokenId",
          "type": "uint256"
        }
      ],
      "name": "ownerOf",
      "outputs": [
        {
          "internalType": "address",
          "name": "",
          "type": "address"
        }
      ],
      "stateMutability": "view",
      "type": "function"
    },
    {
      "inputs": [],
      "name": "renounceOwnership",
      "outputs": [],
      "stateMutability": "nonpayable",
      "type": "function"
    },
    {
      "inputs": [
        {
          "internalType": "address",
          "name": "from",
          "type": "address"
        },
        {
          "internalType": "address",
          "name": "to",
          "type": "address"
        },
        {
          "internalType": "uint256",
          "name": "tokenId",
          "type": "uint256"
        }
      ],
      "name": "safeTransferFrom",
      "outputs": [],
      "stateMutability": "nonpayable",
      "type": "function"
    },
    {
      "inputs": [
        {
          "internalType": "address",
          "name": "from",
          "type": "address"
        },
        {
          "internalType": "address",
          "name": "to",
          "type": "address"
        },
        {
          "internalType": "uint256",
          "name": "tokenId",
          "type": "uint256"
        },
        {
          "internalType": "bytes",
          "name": "data",
          "type": "bytes"
        }
      ],
      "name": "safeTransferFrom",
      "outputs": [],
      "stateMutability": "nonpayable",
      "type": "function"
    },
    {
      "inputs": [
        {
          "internalType": "address",
          "name": "operator",
          "type": "address"
        },
        {
          "internalType": "bool",
          "name": "approved",
          "type": "bool"
        }
      ],
      "name": "setApprovalForAll",
      "outputs": [],
      "stateMutability": "nonpayable",
      "type": "function"
    },
    {
      "inputs": [
        {
          "internalType": "bytes4",
          "name": "interfaceId",
          "type": "bytes4"
        }
      ],
      "name": "supportsInterface",
      "outputs": [
        {
          "internalType": "bool",
          "name": "",
          "type": "bool"
        }
      ],
      "stateMutability": "view",
      "type": "function"
    },
    {
      "inputs": [],
      "name": "symbol",
      "outputs": [
        {
          "internalType": "string",
          "name": "",
          "type": "string"
        }
      ],
      "stateMutability": "view",
      "type": "function"
    },
    {
      "inputs": [
        {
          "internalType": "uint256",
          "name": "",
          "type": "uint256"
        }
      ],
      "name": "tickets",
      "outputs": [
        {
          "internalType": "string",
          "name": "title",
          "type": "string"
        },
        {
          "internalType": "string",
          "name": "venue",
          "type": "string"
        },
        {
          "internalType": "uint256",
          "name": "date",
          "type": "uint256"
        },
        {
          "internalType": "uint256",
          "name": "price",
          "type": "uint256"
        },
        {
          "internalType": "string",
          "name": "imageURI",
          "type": "string"
        }
      ],
      "stateMutability": "view",
      "type": "function"
    },
    {
      "inputs": [
        {
          "internalType": "uint256",
          "name": "tokenId",
          "type": "uint256"
        }
      ],
      "name": "tokenURI",
      "outputs": [
        {
          "internalType": "string",
          "name": "",
          "type": "string"
        }
      ],
      "stateMutability": "view",
      "type": "function"
    },
    {
      "inputs": [
        {
          "internalType": "address",
          "name": "from",
          "type": "address"
        },
        {
          "internalType": "address",
          "name": "to",
          "type": "address"
        },
        {
          "internalType": "uint256",
          "name": "tokenId",
          "type": "uint256"
        }
      ],
      "name": "transferFrom",
      "outputs": [],
      "stateMutability": "nonpayable",
      "type": "function"
    },
    {
      "inputs": [
        {
          "internalType": "address",
          "name": "newOwner",
          "type": "address"
        }
      ],
      "name": "transferOwnership",
      "outputs": [],
      "stateMutability": "nonpayable",
      "type": "function"
    },
    {
      "inputs": [
        {
          "internalType": "string",
          "name": "title",
          "type": "string"
        },
        {
          "internalType": "string",
          "name": "venue",
          "type": "string"
        },
        {
          "internalType": "uint256",
          "name": "date",
          "type": "uint256"
        },
        {
          "internalType": "uint256",
          "name": "price",
          "type": "uint256"
        },
        {
          "internalType": "string",
          "name": "imageURI",
          "type": "string"
        }
      ],
      "name": "mintTicket",
      "outputs": [],
      "stateMutability": "nonpayable",
      "type": "function"
    },
    {
      "inputs": [
        {
          "internalType": "uint256",
          "name": "tokenId",
          "type": "uint256"
        }
      ],
      "name": "buyTicket",
      "outputs": [],
      "stateMutability": "payable",
      "type": "function"
    }
  ],
  "bytecode": "0x60806040523480156200001157600080fd5b50604080518082018252600b81526a2a34b1b5b2ba2a37b5b2b760a91b6020808301918252835180850190945260048452635449434b60e01b9084015281519192916200006191600091620000f0565b50805162000077906001906020840190620000f0565b505050620000946200008e6200009a60201b60201c565b6200009e565b620001d3565b3390565b600680546001600160a01b038381166001600160a01b0319831681179093556040519116919082907f8be0079c531659141344cd1fd0a4f28419497f9722a3daafe3b4186f6b6457e090600090a35050565b828054620000fe9062000196565b90600052602060002090601f0160209004810192826200012257600085556200016d565b82601f106200013d57805160ff19168380011785556200016d565b828001600101855582156200016d579182015b828111156200016d57825182559160200191906001019062000150565b506200017b9291506200017f565b5090565b5b808211156200017b576000815560010162000180565b600281046001821680620001ab57607f821691505b60208210811415620001cd57634e487b7160e01b600052602260045260246000fd5b50919050565b611b4180620001e36000396000f3fe6080604052600436106101145760003560e01c806370a08231116100a0578063a22cb46511610064578063a22cb465146102f0578063b88d4fde14610310578063c87b56dd14610330578063e985e9c514610350578063f2fde38b1461037057610114565b806370a0823114610264578063715018a6146102915780638da5cb5b146102a6578063908e2c96146102bb57806395d89b41146102db57610114565b806323b872dd116100e757806323b872dd146101c057806342842e0e146101e057806350b44712146102005780636352211e1461023157806367dd74ca1461025157610114565b806301ffc9a71461011957806306fdde031461014f578063081812fc14610171578063095ea7b31461019e575b600080fd5b34801561012557600080fd5b506101396101343660046114aa565b610390565b604051610146919061163e565b60405180910390f35b34801561015b57600080fd5b506101646103d8565b6040516101469190611649565b34801561017d57600080fd5b5061019161018c36600461157a565b61046a565b60405161014691906115ed565b3480156101aa57600080fd5b506101be6101b9366004611481565b610491565b005b3480156101cc57600080fd5b506101be6101db366004611393565b610532565b3480156101ec57600080fd5b506101be6101fb366004611393565b61056a565b34801561020c57600080fd5b5061022061021b36600461157a565b610585565b60405161014695949392919061165c565b34801561023d57600080fd5b5061019161024c36600461157a565b61074b565b6101be61025f36600461157a565b61077f565b34801561027057600080fd5b5061028461027f366004611347565b610802565b6040516101469190611a48565b34801561029d57600080fd5b506101be610846565b3480156102b257600080fd5b5061019161085a565b3480156102c757600080fd5b506101be6102d63660046114e2565b610869565b3480156102e757600080fd5b50610164610934565b3480156102fc57600080fd5b506101be61030b366004611447565b610943565b34801561031c57600080fd5b506101be61032b3660046113ce565b610955565b34801561033c57600080fd5b5061016461034b36600461157a565b610994565b34801561035c57600080fd5b5061013961036b366004611361565b6109fb565b34801561037c57600080fd5b506101be61038b366004611347565b610a29565b60006001600160e01b031982166380ac58cd60e01b14806103c157506001600160e01b03198216635b5e139f60e01b145b806103d057506103d082610a63565b90505b919050565b6060600080546103e790611a7d565b80601f016020809104026020016040519081016040528092919081815260200182805461041390611a7d565b80156104605780601f1061043557610100808354040283529160200191610460565b820191906000526020600020905b81548152906001019060200180831161044357829003601f168201915b5050505050905090565b600061047582610a7c565b506000908152600460205260409020546001600160a01b031690565b600061049c8261074b565b9050806001600160a01b0316836001600160a01b031614156104d95760405162461bcd60e51b81526004016104d0906119aa565b60405180910390fd5b806001600160a01b03166104eb610aa1565b6001600160a01b0316148061050757506105078161036b610aa1565b6105235760405162461bcd60e51b81526004016104d0906119eb565b61052d8383610aa5565b505050565b61054361053d610aa1565b82610b13565b61055f5760405162461bcd60e51b81526004016104d0906116ad565b61052d838383610b72565b61052d83838360405180602001604052806000815250610955565b6008602052600090815260409020805481906105a090611a7d565b80601f01602080910402602001604051908101604052809291908181526020018280546105cc90611a7d565b80156106195780601f106105ee57610100808354040283529160200191610619565b820191906000526020600020905b8154815290600101906020018083116105fc57829003601f168201915b50505050509080600101805461062e90611a7d565b80601f016020809104026020016040519081016040528092919081815260200182805461065a90611a7d565b80156106a75780601f1061067c576101008083540402835291602001916106a7565b820191906000526020600020905b81548152906001019060200180831161068a57829003601f168201915b5050505050908060020154908060030154908060040180546106c890611a7d565b80601f01602080910402602001604051908101604052809291908181526020018280546106f490611a7d565b80156107415780601f1061071657610100808354040283529160200191610741565b820191906000526020600020905b81548152906001019060200180831161072457829003601f168201915b5050505050905085565b60008061075783610caf565b90506001600160a01b0381166103d05760405162461bcd60e51b81526004016104d090611973565b60008181526008602052604090206003015434146107af5760405162461bcd60e51b81526004016104d090611889565b60006107ba8261074b565b6040519091506001600160a01b038216903480156108fc02916000818181858888f193505050501580156107f2573d6000803e3d6000fd5b506107fe813384610b72565b5050565b60006001600160a01b03821661082a5760405162461bcd60e51b81526004016104d0906118c0565b506001600160a01b031660009081526003602052604090205490565b61084e610cca565b6108586000610d09565b565b6006546001600160a01b031690565b610871610cca565b6007805490600061088183611ab8565b90915550506040805160a081018252868152602080820187905281830186905260608201859052608082018490526007546000908152600882529290922081518051929391926108d49284920190611202565b5060208281015180516108ed9260018501920190611202565b5060408201516002820155606082015160038201556080820151805161091d916004840191602090910190611202565b5090505061092d33600754610d5b565b5050505050565b6060600180546103e790611a7d565b6107fe61094e610aa1565b8383610e50565b610966610960610aa1565b83610b13565b6109825760405162461bcd60e51b81526004016104d0906116ad565b61098e84848484610ef3565b50505050565b606061099f82610a7c565b60006109a9610f26565b905060008151116109c957604051806020016040528060008152506109f4565b806109d384610f38565b6040516020016109e49291906115be565b6040516020818303038152906040525b9392505050565b6001600160a01b03918216600090815260056020908152604080832093909416825291909152205460ff1690565b610a31610cca565b6001600160a01b038116610a575760405162461bcd60e51b81526004016104d09061174c565b610a6081610d09565b50565b6001600160e01b031981166301ffc9a760e01b14919050565b610a8581610fe3565b610a605760405162461bcd60e51b81526004016104d090611973565b3390565b600081815260046020526040902080546001600160a01b0319166001600160a01b0384169081179091558190610ada8261074b565b6001600160a01b03167f8c5be1e5ebec7d5bd14f71427d1e84f3dd0314c0f7b2291e5b200ac8c7c3b92560405160405180910390a45050565b600080610b1f8361074b565b9050806001600160a01b0316846001600160a01b03161480610b465750610b4681856109fb565b80610b6a5750836001600160a01b0316610b5f8461046a565b6001600160a01b0316145b949350505050565b826001600160a01b0316610b858261074b565b6001600160a01b031614610bab5760405162461bcd60e51b81526004016104d090611792565b6001600160a01b038216610bd15760405162461bcd60e51b81526004016104d09061180e565b610bde838383600161098e565b826001600160a01b0316610bf18261074b565b6001600160a01b031614610c175760405162461bcd60e51b81526004016104d090611792565b600081815260046020908152604080832080546001600160a01b03199081169091556001600160a01b0387811680865260038552838620805460001901905590871680865283862080546001019055868652600290945282852080549092168417909155905184937fddf252ad1be2c89b69c2b068fc378daa952ba7f163c4a11628f55a4df523b3ef91a461052d838383600161098e565b6000908152600260205260409020546001600160a01b031690565b610cd2610aa1565b6001600160a01b0316610ce361085a565b6001600160a01b0316146108585760405162461bcd60e51b81526004016104d09061193e565b600680546001600160a01b038381166001600160a01b0319831681179093556040519116919082907f8be0079c531659141344cd1fd0a4f28419497f9722a3daafe3b4186f6b6457e090600090a35050565b6001600160a01b038216610d815760405162461bcd60e51b81526004016104d090611909565b610d8a81610fe3565b15610da75760405162461bcd60e51b81526004016104d0906117d7565b610db560008383600161098e565b610dbe81610fe3565b15610ddb5760405162461bcd60e51b81526004016104d0906117d7565b6001600160a01b038216600081815260036020908152604080832080546001019055848352600290915280822080546001600160a01b0319168417905551839291907fddf252ad1be2c89b69c2b068fc378daa952ba7f163c4a11628f55a4df523b3ef908290a46107fe60008383600161098e565b816001600160a01b0316836001600160a01b03161415610e825760405162461bcd60e51b81526004016104d090611852565b6001600160a01b0383811660008181526005602090815260408083209487168084529490915290819020805460ff1916851515179055517f17307eab39ab6107e8899845ad3d59bd9653f200f220920489ca2b5937696c3190610ee690859061163e565b60405180910390a3505050565b610efe848484610b72565b610f0a84848484611000565b61098e5760405162461bcd60e51b81526004016104d0906116fa565b60408051602081019091526000815290565b60606000610f458361111b565b600101905060008167ffffffffffffffff811115610f7357634e487b7160e01b600052604160045260246000fd5b6040519080825280601f01601f191660200182016040528015610f9d576020820181803683370190505b5090508181016020015b600019016f181899199a1a9b1b9c1cb0b131b232b360811b600a86061a8153600a8504945084610fd657610fdb565b610fa7565b509392505050565b600080610fef83610caf565b6001600160a01b0316141592915050565b6000611014846001600160a01b03166111f3565b1561111057836001600160a01b031663150b7a02611030610aa1565b8786866040518563ffffffff1660e01b81526004016110529493929190611601565b602060405180830381600087803b15801561106c57600080fd5b505af192505050801561109c575060408051601f3d908101601f19168201909252611099918101906114c6565b60015b6110f6573d8080156110ca576040519150601f19603f3d011682016040523d82523d6000602084013e6110cf565b606091505b5080516110ee5760405162461bcd60e51b81526004016104d0906116fa565b805181602001fd5b6001600160e01b031916630a85bd0160e11b149050610b6a565b506001949350505050565b60008072184f03e93ff9f4daa797ed6e38ed64bf6a1f0160401b831061115a5772184f03e93ff9f4daa797ed6e38ed64bf6a1f0160401b830492506040015b6d04ee2d6d415b85acef81000000008310611186576d04ee2d6d415b85acef8100000000830492506020015b662386f26fc1000083106111a457662386f26fc10000830492506010015b6305f5e10083106111bc576305f5e100830492506008015b61271083106111d057612710830492506004015b606483106111e2576064830492506002015b600a83106103d05760010192915050565b6001600160a01b03163b151590565b82805461120e90611a7d565b90600052602060002090601f0160209004810192826112305760008555611276565b82601f1061124957805160ff1916838001178555611276565b82800160010185558215611276579182015b8281111561127657825182559160200191906001019061125b565b50611282929150611286565b5090565b5b808211156112825760008155600101611287565b600067ffffffffffffffff808411156112b6576112b6611adf565b604051601f8501601f19908116603f011681019082821181831017156112de576112de611adf565b816040528093508581528686860111156112f757600080fd5b858560208301376000602087830101525050509392505050565b80356001600160a01b03811681146103d357600080fd5b600082601f830112611338578081fd5b6109f48383356020850161129b565b600060208284031215611358578081fd5b6109f482611311565b60008060408385031215611373578081fd5b61137c83611311565b915061138a60208401611311565b90509250929050565b6000806000606084860312156113a7578081fd5b6113b084611311565b92506113be60208501611311565b9150604084013590509250925092565b600080600080608085870312156113e3578081fd5b6113ec85611311565b93506113fa60208601611311565b925060408501359150606085013567ffffffffffffffff81111561141c578182fd5b8501601f8101871361142c578182fd5b61143b8782356020840161129b565b91505092959194509250565b60008060408385031215611459578182fd5b61146283611311565b915060208301358015158114611476578182fd5b809150509250929050565b60008060408385031215611493578182fd5b61149c83611311565b946020939093013593505050565b6000602082840312156114bb578081fd5b81356109f481611af5565b6000602082840312156114d7578081fd5b81516109f481611af5565b600080600080600060a086880312156114f9578081fd5b853567ffffffffffffffff80821115611510578283fd5b61151c89838a01611328565b96506020880135915080821115611531578283fd5b61153d89838a01611328565b955060408801359450606088013593506080880135915080821115611560578283fd5b5061156d88828901611328565b9150509295509295909350565b60006020828403121561158b578081fd5b5035919050565b600081518084526115aa816020860160208601611a51565b601f01601f19169290920160200192915050565b600083516115d0818460208801611a51565b8351908301906115e4818360208801611a51565b01949350505050565b6001600160a01b0391909116815260200190565b6001600160a01b038581168252841660208201526040810183905260806060820181905260009061163490830184611592565b9695505050505050565b901515815260200190565b6000602082526109f46020830184611592565b600060a0825261166f60a0830188611592565b82810360208401526116818188611592565b905085604084015284606084015282810360808401526116a18185611592565b98975050505050505050565b6020808252602d908201527f4552433732313a2063616c6c6572206973206e6f7420746f6b656e206f776e6560408201526c1c881bdc88185c1c1c9bdd9959609a1b606082015260800190565b60208082526032908201527f4552433732313a207472616e7366657220746f206e6f6e20455243373231526560408201527131b2b4bb32b91034b6b83632b6b2b73a32b960711b606082015260800190565b60208082526026908201527f4f776e61626c653a206e6577206f776e657220697320746865207a65726f206160408201526564647265737360d01b606082015260800190565b60208082526025908201527f4552433732313a207472616e736665722066726f6d20696e636f72726563742060408201526437bbb732b960d91b606082015260800190565b6020808252601c908201527f4552433732313a20746f6b656e20616c7265616479206d696e74656400000000604082015260600190565b60208082526024908201527f4552433732313a207472616e7366657220746f20746865207a65726f206164646040820152637265737360e01b606082015260800190565b60208082526019908201527f4552433732313a20617070726f766520746f2063616c6c657200000000000000604082015260600190565b60208082526018908201527f496e636f7272656374207061796d656e7420616d6f756e740000000000000000604082015260600190565b60208082526029908201527f4552433732313a2061646472657373207a65726f206973206e6f7420612076616040820152683634b21037bbb732b960b91b606082015260800190565b6020808252818101527f4552433732313a206d696e7420746f20746865207a65726f2061646472657373604082015260600190565b6020808252818101527f4f776e61626c653a2063616c6c6572206973206e6f7420746865206f776e6572604082015260600190565b60208082526018908201527f4552433732313a20696e76616c696420746f6b656e2049440000000000000000604082015260600190565b60208082526021908201527f4552433732313a20617070726f76616c20746f2063757272656e74206f776e656040820152603960f91b606082015260800190565b6020808252603d908201527f4552433732313a20617070726f76652063616c6c6572206973206e6f7420746f60408201527f6b656e206f776e6572206f7220617070726f76656420666f7220616c6c000000606082015260800190565b90815260200190565b60005b83811015611a6c578181015183820152602001611a54565b8381111561098e5750506000910152565b600281046001821680611a9157607f821691505b60208210811415611ab257634e487b7160e01b600052602260045260246000fd5b50919050565b6000600019821415611ad857634e487b7160e01b81526011600452602481fd5b5060010190565b634e487b7160e01b600052604160045260246000fd5b6001600160e01b031981168114610a6057600080fdfea2646970667358221220977b5eb1447b17130c8da14b05f5782466c823ec05cef02c45c7e046b6427cc764736f6c63430008010033",
  "immutableReferences": {},
  "source": "// SPDX-License-Identifier: MIT\npragma solidity ^0.8.0;\n\nimport \"@openzeppelin/contracts/token/ERC721/ERC721.sol\";\nimport \"@openzeppelin/contracts/access/Ownable.sol\";\n\ncontract Ticket is ERC721, Ownable {\n    uint256 private _tokenId;\n\n    struct TicketData {\n        string title;\n        string venue;\n        uint256 date;\n        uint256 price;\n        string imageURI;\n    }\n\n    mapping(uint256 => TicketData) public tickets;\n\n    constructor() ERC721(\"TicketToken\", \"TICK\") {}\n\n    function mintTicket(\n        string memory title,\n        string memory venue,\n        uint256 date,\n        uint256 price,\n        string memory imageURI\n    ) public onlyOwner {\n        _tokenId++;\n        tickets[_tokenId] = TicketData(title, venue, date, price, imageURI);\n        _mint(msg.sender, _tokenId);\n    }\n\n    function buyTicket(uint256 tokenId) public payable {\n        require(msg.value == tickets[tokenId].price, \"Incorrect payment amount\");\n        address owner = ownerOf(tokenId);\n        payable(owner).transfer(msg.value);\n        _transfer(owner, msg.sender, tokenId);\n    }\n}\n",
  "sourcePath": "/Users/tarunmidha/Desktop/UofTBootCamp/Project 3 /The Ticketing App React/client/contracts/Ticket.sol",
  "compiler": {
    "name": "solc",
    "version": "0.8.1+commit.df193b15.Emscripten.clang"
  },
  "schemaVersion": "3.4.13",
  "updatedAt": "2023-05-09T23:35:37.836Z",
  "devdoc": {
    "kind": "dev",
    "methods": {
      "approve(address,uint256)": {
        "details": "See {IERC721-approve}."
      },
      "balanceOf(address)": {
        "details": "See {IERC721-balanceOf}."
      },
      "getApproved(uint256)": {
        "details": "See {IERC721-getApproved}."
      },
      "isApprovedForAll(address,address)": {
        "details": "See {IERC721-isApprovedForAll}."
      },
      "name()": {
        "details": "See {IERC721Metadata-name}."
      },
      "owner()": {
        "details": "Returns the address of the current owner."
      },
      "ownerOf(uint256)": {
        "details": "See {IERC721-ownerOf}."
      },
      "renounceOwnership()": {
        "details": "Leaves the contract without owner. It will not be possible to call `onlyOwner` functions anymore. Can only be called by the current owner. NOTE: Renouncing ownership will leave the contract without an owner, thereby removing any functionality that is only available to the owner."
      },
      "safeTransferFrom(address,address,uint256)": {
        "details": "See {IERC721-safeTransferFrom}."
      },
      "safeTransferFrom(address,address,uint256,bytes)": {
        "details": "See {IERC721-safeTransferFrom}."
      },
      "setApprovalForAll(address,bool)": {
        "details": "See {IERC721-setApprovalForAll}."
      },
      "supportsInterface(bytes4)": {
        "details": "See {IERC165-supportsInterface}."
      },
      "symbol()": {
        "details": "See {IERC721Metadata-symbol}."
      },
      "tokenURI(uint256)": {
        "details": "See {IERC721Metadata-tokenURI}."
      },
      "transferFrom(address,address,uint256)": {
        "details": "See {IERC721-transferFrom}."
      },
      "transferOwnership(address)": {
        "details": "Transfers ownership of the contract to a new account (`newOwner`). Can only be called by the current owner."
      }
    },
    "version": 1
  },
  "userdoc": {
    "kind": "user",
    "methods": {},
    "version": 1
  }
}